:100000000C9446000C945D000C945D000C945D0013
:100010000C945D000C945D000C945D000C945D00EC
:100020000C945D000C945D000C945D000C945D00DC
:100030000C945D000C945D000C945D000C945D00CC
:100040000C945D000C945D000C945D000C945D00BC
:100050000C945D000C945D000C945D000C945D00AC
:100060000C945D000C945D000C945D000C945D009C
:100070000C945D000C945D000C945D000C945D008C
:100080000C945D000C945D000C945D0011241FBE67
:10009000CFEFD0E1DEBFCDBF11E0A0E0B1E0E0E501
:1000A000F1E000E00BBF02C007900D92A030B10755
:1000B000D9F70E945F000C94A6000C940000EF9208
:1000C000FF920F931F93CF93DF938FEF8ABB84BB75
:1000D00081BB60E070E087E0E82EF12C012D112D4E
:1000E000CEE6D1E016C0D801C701062E04C0880FA5
:1000F000991FAA1FBB1F0A94D2F78BBB95BBA2BB4B
:1001000080E29EE4FE013197F1F70197D9F76F5F26
:100110007F4F663171053CF365E170E0D801C7019E
:10012000062E04C0880F991FAA1FBB1F0A94D2F77E
:100130008BBB95BBA2BB80E29EE4FE013197F1F739
:100140000197D9F76150704049F7E3CFF894FFCF9A
:00000001FF
